:020000040800F2
:100000000030002069510008BD500008C1500008B0
:10001000C5500008C9500008CD500008000000007D
:10002000000000000000000000000000D1500008A7
:10003000D550000800000000D9500008DD5000082D
:10004000B9510008B9510008B9510008B951000868
:10005000B9510008B9510008B9510008B951000858
:10006000B9510008B9510008B9510008ED50000815
:10007000B9510008B9510008B9510008B951000838
:10008000B9510008B9510008B9510008B951000828
:10009000B9510008B9510008B9510008B951000818
:1000A000B9510008B9510008B9510008B951000808
:1000B000B9510008B951000800000000B95100080A
:1000C000B95100080000000000000000B95100080C
:1000D00000000000B9510008B9510008B9510008EA
:1000E000B9510008B95100080000000000000000EC
:1000F0000000000000000000000000000000000000
:1001000000000000000000000000000000000000EF
:100110000000000000000000B9510008B9510008BB
:1001200000000000000000000000000000000000CF
:1001300000000000000000000000000000000000BF
:10014000B9510008B951000800000000B951000879
:10015000B9510008B9510008B9510008B951000857
:10016000B9510008B951000800000000000000006B
:10017000000000000000000000000000000000007F
:0801800000000000B951000865
:1001880010B5054C237833B9044B13B10448AFF3C9
:1001980000800123237010BD24020020000000000D
:1001A8000452000808B5034B1BB103490348AFF3D9
:1001B800008008BD0000000028020020045200084A
:1001C80081F0004102E000BF83F0004330B54FEA00
:1001D80041044FEA430594EA050F08BF90EA020F6D
:1001E8001FBF54EA000C55EA020C7FEA645C7FEA00
:1001F800655C00F0E2804FEA5454D4EB5555B8BF23
:100208006D420CDD2C4480EA020281EA030382EA93
:10021800000083EA010180EA020281EA0303362D25
:1002280088BF30BD11F0004F4FEA01314FF4801CF8
:100238004CEA113102D0404261EB410113F0004F0A
:100248004FEA03334CEA133302D0524263EB4303C1
:1002580094EA050F00F0A780A4F10104D5F1200E5F
:100268000DDB02FA0EFC22FA05F2801841F10001BA
:1002780003FA0EF2801843FA05F359410EE0A5F18E
:1002880020050EF1200E012A03FA0EFC28BF4CF0BF
:10029800020C43FA05F3C01851EBE37101F0004575
:1002A80007D54FF0000EDCF1000C7EEB00006EEB82
:1002B8000101B1F5801F1BD3B1F5001F0CD349080C
:1002C8005FEA30004FEA3C0C04F101044FEA445263
:1002D80012F5800F80F09A80BCF1004F08BF5FEAEA
:1002E800500C50F1000041EB045141EA050130BDCA
:1002F8005FEA4C0C404141EB010111F4801FA4F16D
:100308000104E9D191F0000F04BF01460020B1FAC1
:1003180081F308BF2033A3F10B03B3F120020CDAF9
:100328000C3208DD02F1140CC2F10C0201FA0CF0D7
:1003380021FA02F10CE002F11402D8BFC2F1200C3C
:1003480001FA02F120FA0CFCDCBF41EA0C019040F2
:10035800E41AA2BF01EB0451294330BD6FEA04043B
:100368001F3C1CDA0C340EDC04F11404C4F1200226
:1003780020FA04F001FA02F340EA030021FA04F338
:1003880045EA030130BDC4F10C04C4F1200220FA8F
:1003980002F001FA04F340EA0300294630BD21FACD
:1003A80004F0294630BD94F0000F83F4801306BF93
:1003B80081F480110134013D4EE77FEA645C18BF87
:1003C8007FEA655C29D094EA050F08BF90EA020F1E
:1003D80005D054EA000C04BF1946104630BD91EA16
:1003E800030F1EBF0021002030BD5FEA545C05D119
:1003F8004000494128BF41F0004130BD14F5800458
:100408003CBF01F5801130BD01F0004545F0FE41CB
:1004180041F470014FF0000030BD7FEA645C1ABF00
:10042800194610467FEA655C1CBF0B46024650EA37
:10043800013406BF52EA033591EA030F41F4002163
:1004480030BD00BF90F0000F04BF0021704730B5E9
:100458004FF4806404F132044FF000054FF00001BE
:1004680050E700BF90F0000F04BF0021704730B57F
:100478004FF4806404F1320410F0004548BF404254
:100488004FF000013EE700BF42004FEAE2014FEAA9
:1004980031014FEA02701FBF12F07F4393F07F4F84
:1004A80081F06051704732F07F4208BF704793F087
:1004B8007F4F04BF41F40021704730B54FF460749A
:1004C80001F0004521F000411CE700BF50EA01029D
:1004D80008BF704730B54FF000050AE050EA010246
:1004E80008BF704730B511F0004502D5404261EBB6
:1004F80041014FF4806404F132045FEA915C3FF4F7
:10050800D8AE4FF003025FEADC0C18BF03325FEA93
:10051800DC0C18BF033202EBDC02C2F1200300FA44
:1005280003FC20FA02F001FA03FE40EA0E0021FA69
:1005380002F11444BDE600BF70B54FF0FF0C4CF457
:10054800E06C1CEA11541DBF1CEA135594EA0C0F09
:1005580095EA0C0F00F0DEF82C4481EA030621EA44
:100568004C5123EA4C5350EA013518BF52EA03357F
:1005780041F4801143F4801338D0A0FB02CE4FF031
:100588000005E1FB02E506F00042E0FB03E54FF061
:100598000006E1FB03569CF0000F18BF4EF0010E59
:1005A800A4F1FF04B6F5007F64F5407404D25FEA55
:1005B8004E0E6D4146EB060642EAC62141EA555108
:1005C8004FEAC52040EA5E504FEACE2EB4F1FD0C4A
:1005D80088BFBCF5E06F1ED8BEF1004F08BF5FEAC8
:1005E800500E50F1000041EB045170BD06F000467A
:1005F80046EA010140EA020081EA0301B4EB5C0427
:10060800C2BFD4EB0C0541EA045170BD41F480111E
:100618004FF0000E013C00F3AB8014F1360FDEBF43
:10062800002001F0004170BDC4F10004203C35DA1F
:100638000C341BDC04F11404C4F1200500FA05F3A2
:1006480020FA04F001FA05F240EA020001F0004243
:1006580021F0004110EBD37021FA04F642EB0601B9
:100668005EEA430E08BF20EAD37070BDC4F10C04E3
:10067800C4F1200500FA04F320FA05F001FA04F2A7
:1006880040EA020001F0004110EBD37041F1000193
:100698005EEA430E08BF20EAD37070BDC4F120059E
:1006A80000FA05F24EEA020E20FA04F301FA05F206
:1006B80043EA020321FA04F001F0004121FA04F2AE
:1006C80020EA020000EBD3705EEA430E08BF20EA7E
:1006D800D37070BD94F0000F0FD101F000464000B8
:1006E80041EB010111F4801F08BF013CF7D041EA3A
:1006F800060195F0000F18BF704703F0004652003E
:1007080043EB030313F4801F08BF013DF7D043EA0E
:100718000603704794EA0C0F0CEA135518BF95EAC4
:100728000C0F0CD050EA410618BF52EA4306D1D14B
:1007380081EA030101F000414FF0000070BD50EA6A
:10074800410606BF1046194652EA430619D094EAF4
:100758000C0F02D150EA013613D195EA0C0F05D1DE
:1007680052EA03361CBF104619460AD181EA030132
:1007780001F0004141F0FE4141F470014FF00000EA
:1007880070BD41F0FE4141F4780170BD70B54FF085
:10079800FF0C4CF4E06C1CEA11541DBF1CEA135505
:1007A80094EA0C0F95EA0C0F00F0A7F8A4EB0504E7
:1007B80081EA030E52EA03354FEA013100F08880DE
:1007C8004FEA03334FF0805545EA131343EA1263A7
:1007D8004FEA022245EA111545EA10654FEA00265C
:1007E8000EF000419D4208BF964244F1FD0404F515
:1007F800407402D25B084FEA3202B61A65EB030571
:100808005B084FEA32024FF480104FF4002CB6EB2D
:10081800020E75EB030E22BFB61A754640EA0C00AD
:100828005B084FEA3202B6EB020E75EB030E22BFED
:10083800B61A754640EA5C005B084FEA3202B6EB2E
:10084800020E75EB030E22BFB61A754640EA9C00ED
:100858005B084FEA3202B6EB020E75EB030E22BFBD
:10086800B61A754640EADC0055EA060E18D04FEA7B
:10087800051545EA16754FEA06164FEAC30343EA1B
:1008880052734FEAC2025FEA1C1CC0D111F4801FE8
:100898000BD141EA00014FF000004FF0004CB6E7E1
:1008A80011F4801F04BF01430020B4F1FD0C88BF80
:1008B800BCF5E06F3FF6AFAEB5EB030C04BFB6EB8B
:1008C800020C5FEA500C50F1000041EB045170BD7E
:1008D8000EF0004E4EEA113114EB5C04C2BFD4EBAB
:1008E8000C0541EA045170BD41F480114FF0000E2F
:1008F800013C90E645EA060E8DE60CEA135594EAAB
:100908000C0F08BF95EA0C0F3FF43BAF94EA0C0FAD
:100918000AD150EA01347FF434AF95EA0C0F7FF422
:1009280025AF104619462CE795EA0C0F06D152EA76
:1009380003353FF4FDAE1046194622E750EA41065A
:1009480018BF52EA43067FF4C5AE50EA41047FF46B
:100958000DAF52EA43057FF4EBAE12E74FF0FF3CD0
:1009680006E000BF4FF0010C02E000BF4FF0010CA1
:100978004DF804CD4FEA410C7FEA6C5C4FEA430C1A
:1009880018BF7FEA6C5C1BD001B050EA410C0CBF69
:1009980052EA430C91EA030F02BF90EA020F0020CB
:1009A800704710F1000F91EA030F58BF994208BF32
:1009B80090422CBFD8176FEAE37040F001007047EF
:1009C8004FEA410C7FEA6C5C02D150EA013C07D146
:1009D8004FEA430C7FEA6C5CD6D152EA033CD3D091
:1009E8005DF8040B704700BF8446104662468C468B
:1009F8001946634600E000BF01B5FFF7B7FF0028BE
:100A080048BF10F1000F01BD4DF808EDFFF7F4FFE6
:100A18000CBF012000205DF808FB00BF4DF808ED71
:100A2800FFF7EAFF34BF012000205DF808FB00BF94
:100A38004DF808EDFFF7E0FF94BF012000205DF8B6
:100A480008FB00BF4DF808EDFFF7CEFF94BF01206B
:100A580000205DF808FB00BF4DF808EDFFF7C4FF64
:100A680034BF012000205DF808FB00BF4FEA4102B7
:100A780012F5001215D211D56FF47873B3EB6252E8
:100A880012D94FEAC12343F0004343EA505311F00F
:100A9800004F23FA02F018BF404270474FF00000A1
:100AA800704750EA013005D111F0004008BF6FF0DF
:100AB800004070474FF00000704700BF4FEA410206
:100AC800B2F1E04324BFB3F5001CDCF1FE5C0DD9A4
:100AD80001F0004C4FEAC0024CEA5070B2F1004FEE
:100AE80040EB830008BF20F00100704711F0804FF1
:100AF80021D113F13872BCBF01F00040704741F4B6
:100B080080114FEA5252C2F11802C2F1200C10FAB9
:100B18000CF320FA02F018BF40F001004FEAC1239D
:100B28004FEAD32303FA0CFC40EA0C0023FA02F341
:100B38004FEA4303CCE77FEA625307D150EA013317
:100B48001EBF4FF0FE4040F44000704701F00040E7
:100B580040F0FE4040F40000704700BF70B50E4BF7
:100B68000E4D1B682A7806464FF47A70B0FBF2F0F7
:100B7800B3FBF0F000F0CCFF08B90F2E01D901202B
:100B880070BD0446024631464FF0FF3000F07EFF4C
:100B98006E60204670BD00BF2002002000000020CB
:100BA800074A08B5136843F010031360032000F0E8
:100BB8005BFF0020FFF7D2FF04F08CF9002008BD8E
:100BC80000200240034A044B11681B780B44136051
:100BD800704700BF4802002000000020014B186841
:100BE800704700BF4802002038B50446FFF7F6FFFB
:100BF800631C054602D0044B1B781C44FFF7EEFF2C
:100C0800401BA042FAD338BD00000020704700BF47
:100C1800704700BF704700BF406A436C43F0400311
:100C28004364836C43F004038364FFF7F3BF00BF9E
:100C3800406AFFF7EDBF00BF436A5A6C12F0500FCD
:100C480002D0DB6B1B6B18475A6C196842F40072B0
:100C58005A64CA6812F4406F0CD1DA6952B95A6CF6
:100C680022F480725A645A6CD20403D45A6C42F04B
:100C780001025A641846FFF7C9BF00BF70B582B0B9
:100C88000023019300287BD0436C13F01003044623
:100C980016D1456C002D76D001688A68D00063D5DE
:100CA8008A68920060D4626CD60640F18780636CD3
:100CB80023F0120343F010036364012002B070BDF7
:100CC800436CDB06F3D401688B6813F00403EED1A0
:100CD800626C22F4817242F0020262648A68B1F1A5
:100CE800A04F02F003026DD0012A4FF0A0406CD053
:100CF800826802F00302012A6BD07948656882682D
:100D080022F440322A438260D4E90252A66BE06999
:100D18002A43656A012E18BF4FF4805342EA4032D5
:100D2800012D43EA020300F08D80E26A012A02D015
:100D3800206B024313438A6812F00C0F31D0CD6840
:100D4800684A20692A4013430128CB6072D00B6B94
:100D580023F00F030B630020A064636C23F00303EC
:100D680043F001036364A9E7636C23F0120343F0C3
:100D780010036364A36C43F00103A364636C96E7F8
:100D8800012002B070BD8564C0E9135580F8405059
:100D980004F0E8F821688A6812F080521DD02B46CA
:100DA8007BE7C868626BA56920F48040520020F098
:100DB800020042EA8532C8601343C0E7002B7FF483
:100DC80076AF81E7012A484892D10A68D5079BD4B3
:100DD8008EE70268D20797D48FE7886800F003008F
:100DE800012842D0636CDE0653D4626C3F4B404806
:100DF8001B6822F4885222F0020242F00202626466
:100E08008A6822F040528A60A0FB03239B0C8A6800
:100E180003EB83035B0042F080528A600193019BDD
:100E2800002B3FF43AAF019B013B0193019B002B40
:100E3800F9D132E70A6B236A22F00F02013B134310
:100E48000B6388E730B9A26A013A43EA424343F4A4
:100E580080336AE7626C22F0220242F02002626468
:100E6800A26C42F00102A2645FE70B6813F0010371
:100E780025D08B6803F00D03012B0CD0636C43F075
:100E880010036364A36C43F00103A364626C03461C
:100E980003E7134601E78B68032243F002038B60E4
:100EA8000A60FFF79BFE054604E0FFF797FE401B2C
:100EB800022809D821688B6813F00103F5D1626C08
:100EC800D5063FF5EAAE90E7636C216843F010035E
:100ED8006364A36C43F00103A364636C0123DCE641
:100EE8000003005007C0F0FF00010050200200205E
:100EF80083DE1B432DE9F0410568AC68670714D40D
:100F080090F84030012B10D0464B9B689046DE0687
:100F18004FF001020F46044680F8402008D0002315
:100F280084F840300120BDE8F0810220BDE8F0815E
:100F3800AB6803F0030393420CD0AA683A4B1A42F9
:100F48005DD0636C43F010036364A36C43F001034A
:100F5800A364E4E72B68D807EFD5636C314A23F420
:100F6800706323F0010343F480736364936813F0A0
:100F78001F0F636C3CD0B5F1A04F39D02B4A43F416
:100F88008013954263640AD14FF0A043DB689B014C
:100F980005D5636C23F4405343F480536364636C56
:100FA800E06B2349234A13F480531CBFA36C23F03E
:100FB8000603A364204B002684F84060C0E90A13A6
:100FC8001C2302632B606B6843F010036B60E968B5
:100FD80041F0010143463A46E96005F1400100F05D
:100FE800FBFD2268936843F00403304693609AE758
:100FF80023F480136364EB689A01D0D5C9E7AB6822
:1010080043F00103AB60FFF7E9FD064604E0FFF794
:10101800E5FD801B022894D825682B68D907F6D5EA
:101028009BE700BF000300503F0000800001005014
:10103800410C0008210C0008390C0008F0B40246E5
:1010480082B092F840300020012B019000F0D88047
:101058001368CC689D6801206D0782F8400037D47A
:10106800D1E9005606EB4600042E4FEA400079D835
:101078001E6B1F27874026EA070605FA00F0304353
:101088001863986810F00C0F50D1092D05EB450630
:10109800886840F2A5801E3E9F694FF0070C0CFA45
:1010A80006FCB04027EA0C0630439861D1E9046792
:1010B800D868C0F3C1004000013E07FA00F0AF064F
:1010C800032E0FD8DFE816F0F100E600DB00D000B1
:1010D800536C43F020035364002382F8403002B07D
:1010E800F0BC7047186E00F0F840874203D1186EC4
:1010F80020F000401866586E00F0F840874203D18F
:10110800586E20F000405866986E00F0F84087420C
:1011180003D1986E20F000409866D86E00F0F84031
:10112800874203D1D86E20F00040D866986800F056
:101138000300012868D00120012C00FA05F067D0CF
:10114800D3F8B01021EA0000C3F8B000102D18D071
:10115800112D50D0122D03D1774989684E0214D52C
:101168000020B9E7092E30D90E2E72D83C389E6B74
:101178001F27874026EA070605FA00F030439863E0
:101188007FE76D4989680902EAD49968B3F1A04FED
:1011980001F0030100F09F8001294FF0A04000F00A
:1011A8009E80816801F00301012900F0C080102DA4
:1011B80000F09F80112D00F08380122DD0D15E4960
:1011C8008B6843F480038B60CAE71E385E6B1F2769
:1011D800874026EA070605FA00F03043586350E7CF
:1011E8005F694FF0070C0CFA06FCB04027EA0C06C2
:1011F800304358615AE750498968CF01C5D5AFE7F0
:10120800022002B0F0BC70471868C00793D5A7E762
:10121800D3F8B0608C683043092DC3F8B0000CD9FE
:1012280005EB45011B39986907268E4020EA060020
:1012380004FA01F10143996188E7681C00EB40005A
:10124800596907268640844021EA060121435961ED
:101258007EE75A38DE6B1F27874026EA070605FA1D
:1012680000F03043D8630CE7D3F86CC0334E0CEA77
:101278000606374347F000473843D86656E7D3F8A1
:1012880068C02E4E0CEA0606374347F0004738433D
:1012980098664BE7D3F864C0284E0CEA0606374335
:1012A80047F000473843586640E7D3F860C0234EFC
:1012B8000CEA0606374347F000473843186635E717
:1012C800B3F1A04F7FF44CAF1B498B6843F0807398
:1012D8008B60002000E7012919487FF462AF196884
:1012E800CC077FF55EAF536C43F0200353640120B5
:1012F800F2E6B3F1A04F7FF433AF0F49114C8B687E
:10130800114843F400038B602368A0FB03139B0C74
:1013180003EB83035B000193019B002B3FF420AF99
:10132800019B013B0193019B002BF9D118E7016850
:10133800C907D8D43BE700BF0003005000F0FF8383
:10134800000100502002002083DE1B430346F0B456
:101358001C6893F840203548B4F1A04F18BF4FF0EF
:10136800A040012A37D0A2680E680125570783F8E4
:10137800405009D55A6C42F020025A6401200022DC
:1013880083F84020F0BC704782685507F2D42EB32A
:10139800DFF89CC04F68DCF808505A6B25F46045AC
:1013A80047EA42322A43CCF80820A26802F0030236
:1013B800012A2FD0826802F00302012A2ED01C488D
:1013C8008968826822F471620E4322F00F02164384
:1013D80086600020D3E70220F0BC704714498A6871
:1013E80022F460428A60A26802F00302012A0DD04A
:1013F800826802F00302012A14D00D498A6822F497
:10140800716222F00F028A600020B8E72268D107D3
:10141800DFD4EDE72268D407CCD5DAE70268D00735
:10142800D7D4CCE70268D207D3D4E6E7000100504E
:101438000003005003684869D3F8002242F0010213
:101448002DE9F041CE69C3F800220122D3F81C42ED
:101458008240D5432C40C3F81C42002E3FD1D3F81C
:101468000C72CE68B1F804C00C8803EBC00805EA1A
:1014780007008F68C3F80C024CEA064644EA0744A2
:10148800C8F84062C8F84442886910BBD3F804021F
:101498002840C3F804020869A8B9D3F81402284000
:1014A800C3F81402096A012904D1D3F81C120A43AB
:1014B800C3F81C22D3F8002222F00102C3F800224C
:1014C8000020BDE8F081D3F814021043C3F81402D9
:1014D800E8E7D3F804021043C3F80402DBE7012E5F
:1014E800D2D1D3F80C620F68B1F804E0B1F80CC09F
:1014F80003EBC00446EA02008E68C3F80C024EEA09
:1015080007474CEA0646C4F84072C4F84462BBE791
:10151800002800F08B8090F83D3070B503F0FF0292
:101528000546002B77D02B68022285F83D201A68E3
:1015380022F002021A601A6842F001021A60FFF7EC
:101548004DFB064604E0FFF749FB801B0A2867D8D5
:101558002A68546814F00104F5D05368D90755D5A2
:10156800AB69012B13680CBF43F0800323F08003A1
:101578001360EB69012B13680CBF43F0400323F0A1
:10158800400313602B6A012B13680CBF43F0200340
:1015980023F0200313606B6A012B13680CBF43F020
:1015A800100323F010031360AB6A012B13680CBF00
:1015B80043F0080323F008031360EB6A012B136858
:1015C8000CBF43F0040323F004031360D5E9023190
:1015D800D5E904400B4369682343034301390B43AE
:1015E800D361136823F001031360FFF7F7FA044689
:1015F80004E0FFF7F3FA001B0A2819D82B685A6889
:10160800D207F6D4586810F0010018D0042385F8E2
:101618003D30012070BD80F83C2003F0E9FC82E7F2
:10162800032085F83C4085F83D0070BD01207047D7
:101638000320002385F83D0085F83C3070BD012368
:10164800286485F83D3070BD026893685B0102D458
:1016580093681B017CD590F83C30012B00F0CD80BD
:1016680090F83D30DBB22DE9F047322B4FF0010402
:1016780080F83C4000F0BD80622B00F0AC80222B4B
:1016880000F0B380122380F83D3093685C0100F1CC
:101698008380936813F0006F0CBF022701274FEA7D
:1016A800071C02EB0C03056BD3F88061D5E9024EE9
:1016B80006F00106C3F88061002C62D12E68D3F8C9
:1016C80080414EEA46562643C3F880610E460446DA
:1016D800D3F884112869DFF85C91DFF8548100F0B1
:1016E8000F0021F00F012861C3F88411D3F8841189
:1016F8000843C3F8840162446969C2F88811A9697A
:10170800C2F88C11D3F88021484D42F00102C3F889
:101718008021FFF763FA8246236817B3711C7AD1D8
:10172800012F5CD042499A6831EA0202FBD194F851
:101738003D30DBB2522B20D0722B64D0422B5ED0CE
:10174800012384F83D30002084F83C00BDE8F08790
:101758009368DB003FF57FAF042380F83D3001201C
:101768007047721C1AD131499A6831EA0202FBD1DA
:1017780094F83D30DBB2522BDED1322384F83D3071
:10178800E1E744EA0E0E6C68D3F880614EEAC404BF
:101798003443C3F8804199E7002780E79A6835EA1F
:1017A8000202C4D036B1FFF719FAA0EB0A00B04222
:1017B800B2D92368032284F83D209A683FB3012FE9
:1017C8000CBF42F4004242F400029A60002384F8FD
:1017D8003C300320BAE7722380F83D3055E71549BD
:1017E8009A6831EA0202FBD1A1E7422380F83D3032
:1017F8004BE7522380F83D3047E702207047222309
:1018080084F83D309FE7622384F83D309BE742F03F
:1018180080029A60DAE7012F9A6803D038EA020258
:10182800C0D184E739EA0202BCD180E70100000494
:101838000000011000010008F8B590F83C30012BB9
:1018480000F0F480012380F83C30002940F09480B7
:1018580090F83D30222B00F0AE8090F83D30422BBE
:1018680000F0A98090F83D30622B00F0A48090F839
:101878003D30722B00F09F8090F83D30DBB2322B68
:1018880000F09E80522B00F0D380122B0CBF422315
:10189800222380F83D3016460D460446FFF79EF990
:1018A80007462368002D00F08F80701C40F0A4804C
:1018B8001A699107FCD0A26B03EB0510D0F8B011A0
:1018C80001F004019160002940F0AB80D0F8B0111C
:1018D800490D116003EB0511D0F8B071D0F8B4616F
:1018E800D0F8B401D1F8B8C182F814C0D1F8B8C1A1
:1018F80015624FEA1C2C82F815C0D1F8B8C14FEA1E
:101908001C4C82F816C0D1F8B8C14FEA1C6C82F89A
:1019180017C0D1F8BCC182F818C0D1F8BCC14FEAD1
:101928001C2C82F819C0D1F8BCC14FEA1C4C82F8B3
:101938001AC0D1F8BC11C7F3400706F00F06C0F370
:101948000720090EC2E90376D061D176002D57D160
:10195800DA6842F02002DA6094F83D30DBB2622B9C
:101968007AD0722B74D0422B57D0012384F83D30A3
:10197800002084F83C00F8BD01290CD090F83D30D7
:10198800DBB2222B1CD0422B52D0122B54D0322344
:1019980080F83D307FE790F83D30322B0BD090F83F
:1019A8003D30522B07D090F83D30622B03D090F891
:1019B8003D30722BE2D1002380F83C300220F8BD84
:1019C800622380F83D3066E7701C04D1DA6891071D
:1019D800FCD0626B70E7DA689207FAD12EB1FFF794
:1019E800FDF8C01BB0427FF65CAF0320002384F8EB
:1019F8003D0084F83C30F8BD1A699207EED05AE7EA
:101A08001A6942F020021A6194F83D30DBB2622B69
:101A18001AD0722B14D0522BA7D1122384F83D3040
:101A2800A6E7D0F8B011C908516053E70220F8BD05
:101A3800722380F83D302EE7522380F83D302AE7A4
:101A4800422384F83D3093E7222384F83D308FE722
:101A5800522384F83D308BE7322384F83D3087E702
:101A680090F83D00704700BF074AD3684FF6FF0162
:101A78000B40000243F0BF6300F4E06043F400331E
:101A88000343D360704700BF00ED00E0184BDB68EC
:101A9800C3F3022330B4C3F10705042D03F1040492
:101AA80028BF0425062C19D9033B4FF0FF349C406E
:101AB80022EA04044FF0FF32AA4021EA020101FAA7
:101AC80003F2224312010028D2B20ADB00F160407F
:101AD80000F5614080F8002330BC7047002423469D
:101AE800E8E7044B00F00F0003441A7630BC704757
:101AF80000ED00E0FCEC00E000F01F0101234009CC
:101B0800024A8B4042F82030704700BF00E100E0F5
:101B18000138B0F1807F0ED2084B10B4084C5860E1
:101B2800F02084F823000022072110469A601960EB
:101B38005DF8044B70470120704700BF10E000E0DB
:101B480000ED00E0044A136804280CBF43F00403C6
:101B580023F004031360704710E000E0704700BFF3
:101B680008B5FFF7FBFF08BD68B370B4D0E90125DD
:101B7800D0E9031403462A4300685E699D690A4355
:101B88002243324304681149114E2A43DD69014456
:101B980024F47F54A6FB01612A4324F03004224335
:101BA80009090C4C0260890000200122C3E90F4199
:101BB800C3E90A00C3E90C00986383F8200083F89E
:101BC800212070BC70470120704700BFF8FFFDBF9F
:101BD800CDCCCCCC00000240F0B590F82040012CD0
:101BE8002FD090F821500124A54280F8204023D11D
:101BF80004680026D0E90FC786632668BD4026F032
:101C0800010647684FF0020E80F821E02660CCF804
:101C180004506360C36A102F0BBFA260A160E1602B
:101C2800E26083B1236843F00E032360236843F026
:101C3800010323600020F0BD002380F8203002203B
:101C4800F0BD0220F0BD236843F00A032360236837
:101C580023F004032360E9E770B4D0E90F520423AA
:101C68002968046893400B4226680AD016F0040FCE
:101C780007D02268920637D5C26A6B60CAB170BCB9
:101C88001047022393400B4215D016F0020F12D0D2
:101C98002268920606D42268012122F00A022260F4
:101CA80080F82110826A6B60002380F82030002AB7
:101CB800E5D170BC7047082393400B42F9D0330735
:101CC800F7D52368016B23F00E032360012303FA81
:101CD80002F200246A60836380F8213080F8204093
:101CE8000029E6D070BC0847226822F0040222606E
:101CF800C2E700BFD1F800C0BCF1000F00F0C080FF
:101D08002DE9F04FDFF88CE183B0884600254FF0CD
:101D1800010909FA05F313EA0C046DD0D8F8042078
:101D280022F0100ABAF1020F6DD06F00032101FAF8
:101D380007F6D0F800B0F643114006EA0B0BB9409D
:101D48000AF1FF3A41EA0B01BAF1010F01607BD9B0
:101D5800C168D8F808300E40BB403343D700C36091
:101D68004AD548498B6943F001038B618B6925F09B
:101D7800030101F1804103F0010301F58031019372
:101D880005F00303019E8E689B000F279F40B0F16A
:101D9800904F26EA07060DD03B4FB8426CD03B4F18
:101DA800B84264D03A4FB8420CBF0327052707FA58
:101DB80003F31E438E60DEF80030E143D60354BFC0
:101DC8000B402343CEF80030DEF80430970354BFAD
:101DD8000B402343CEF80430DEF80830D60254BF57
:101DE8000B402343CEF80830DEF80C30920254BF83
:101DF8000B402343CEF80C3001353CFA05F388D16B
:101E080003B0BDE8F08FEF0800EB870705F0070681
:101E1800396AB6004FF00F0A0AFA06FB21EA0B0AE4
:101E2800D8F81010B14041EA0A0139626F00032165
:101E3800D0F800A001FA07F6F64311400AEA060AAC
:101E4800B94041EA0A010160816801EA060AD8F846
:101E58000C10B94041EA0A018160D0F804A0C2F32D
:101E680000112AEA0303A9401943416070E70227D9
:101E780007FA03F31E439DE709FA03F31E4399E7A4
:101E8800704700BF001002400004004800080048E6
:101E9800000C0048000401400AB981627047816162
:101EA800704700BF2DE9F0430368D90783B00446A3
:101EB80043D5C1494A6802F00C02042A00F0168191
:101EC8004A6802F00C02082A00F00C816368B3F536
:101ED800803F00F08881002B00F09F81B3F5A02F90
:101EE80000F09F82B44B1A6822F480321A601A6894
:101EF80022F480221A60B04DA268EB6A23F00F0327
:101F08001343EB62FEF76AFE4FF4003807460126DA
:101F180005E0FEF763FEC01B642800F27A8198FA98
:101F2800A8F32A6898FAA8F3B3FA83F303F01F0317
:101F380006FA03F31342ECD023689F0742D59E4A62
:101F4800516811F00C0F00F0EC80516801F00C01A1
:101F5800082900F0E2802269002A00F0B4810122F9
:101F680092FAA2F3B3FA83F303F1845303F58413CB
:101F78009B0016461A60FEF731FE4FF0020807462E
:101F88008D4D05E0FEF72AFEC01B022800F24181B4
:101F980098FAA8F32A6898FAA8F3B3FA83F303F037
:101FA8001F0306FA03F31342ECD02968F82292FAC9
:101FB800A2F26369B2FA82F221F0F80193400B436E
:101FC8002B6023681D072CD5A269002A00F0C08069
:101FD800012292FAA2F1794B774EB1FA81F10B44C2
:101FE8009B0015461A60FEF7F9FD4FF002080746F8
:101FF80005E0FEF7F3FDC01B022800F20A8198FAFB
:10200800A8F398FAA8F398FAA8F3726A98FAA8F3CA
:10201800B3FA83F303F01F0305FA03F31342E8D07E
:102028002368580727D5644BDA69D10040F1B78097
:102038004FF00008624D2A68D20540F1DA80E36863
:10204800012B00F06681002B00F01081052B5A4B04
:102058001A6A00F0898122F001021A621A6A22F0D3
:1020680004021A625AE1B8F1000F04D0524AD36947
:1020780023F08053D361E36983B34F4D6A6802F05C
:102088000C02082A60D0022B4FF0807300F0748194
:1020980093FAA3F3B3FA83F303F1845303F5841398
:1020A8009B0000221A60FEF799FD2C4607464FF068
:1020B8000075012605E0FEF791FDC01B022800F21D
:1020C800A88095FAA5F3226895FAA5F3B3FA83F3E5
:1020D80003F01F0306FA03F31342ECD1002003B008
:1020E800BDE8F0834A68D2037FF5F0AE4FF40032C2
:1020F80092FAA2F13049086892FAA2F2B2FA82F290
:1021080002F01F02012101FA02F202423FF415AF68
:102118006268002A7FF411AF16E05268D6033FF5D3
:102128001AAF022292FAA2F12349086892FAA2F29F
:10213800B2FA82F202F01F02012101FA02F202420F
:1021480040D022698A423DD0012003B0BDE8F08327
:10215800012595FAA5F1194B174EB1FA81F10B44F7
:102168009B004FF002081A60FEF738FD074604E0AE
:10217800FEF734FDC01B02284BD898FAA8F398FA4A
:10218800A8F398FAA8F3726A98FAA8F3B3FA83F353
:1021980003F01F0305FA03F31342E9D140E7DA69B4
:1021A80042F08052DA61DB6903F080530193019BAE
:1021B8004FF001083EE700BF001002402081901058
:1021C800007000409D4DF821286891FAA1F16269DC
:1021D800B1FA81F120F0F8008A4002432A601D0715
:1021E8007FF51FAFF0E6954A136843F48033136018
:1021F80081E62A6842F480722A60FEF7EFFC064600
:102208002B68DB053FF51BAFFEF7E8FC801B642855
:10221800F6D9032003B0BDE8F083884D2B6823F47A
:1022280080332B602B6823F480232B60EB6AA26831
:1022380023F00F031343EB62FEF7D0FC4FF4003892
:102248000746012604E0FEF7C9FCC01B6428E0D855
:1022580098FAA8F32A6898FAA8F3B3FA83F303F074
:102268001F0306FA03F31342EDD165E6734D2B6A9B
:1022780023F001032B622B6A23F004032B62FEF781
:10228800ADFC4FF002090746012614E099FAA9F3BC
:102298006A6A99FAA9F3B3FA83F303F01F0306FAFB
:1022A80003F313423FF4DFAEFEF798FC41F28833A4
:1022B800C01B9842ADD899FAA9F399FAA9F3002B53
:1022C800E4D02A6AE5E7012595FAA5F3B3FA83F382
:1022D80003F1845303F584139B004FF002081A603E
:1022E800FEF77CFC554E074604E0FEF777FCC01B62
:1022F80002288ED898FAA8F3326898FAA8F3B3FAA5
:1023080083F303F01F0305FA03F31342EDD12368A7
:1023180058E64A4A136A43F001031362FEF75EFC6B
:102328004FF002090746454E012515E099FAA9F331
:10233800726A99FAA9F3B3FA83F303F01F0305FA53
:1023480003F313427FF48FAEFEF748FC41F2883363
:10235800C01B98423FF65DAF99FAA9F399FAA9F321
:10236800002BE3D0326AE4E742F004021A621A6AE8
:1023780042F001021A62D1E793FAA3F3B3FA83F3A6
:1023880003F1845303F584139B0000221A60FEF7BF
:1023980025FC4FF000780746012605E0FEF71EFCF5
:1023A800C01B02283FF635AF98FAA8F32A6898FAB6
:1023B800A8F3B3FA83F303F01F0306FA03F31342F7
:1023C800ECD1D4E908136A680B4322F4741213435E
:1023D8006B604FF0807393FAA3F3B3FA83F303F1BE
:1023E800845303F584139B004FF000741E60FEF7BE
:1023F800F5FB124E0746012505E0FEF7EFFBC01B73
:1024080002283FF606AF94FAA4F3326894FAA4F3CC
:10241800B3FA83F303F01F0305FA03F31342ECD076
:102428005CE603F18043A3F53C331A6842F480224A
:102438001A601A6842F480321A605CE500100240A3
:10244800714A136803F007038B420BD2136823F019
:1024580007030B431360136803F007038B4201D093
:102468000120704703689A072DE9F04106D5674CAB
:102478008568626822F0F0022A436260DF0704463A
:102488000E4632D54268012A00F0AA80022A0CBF03
:102498004FF00073022393FAA3F15C49086893FA9A
:1024A800A3F3B3FA83F303F01F03012101FA03F343
:1024B80003422AD0554D6B6823F003031A436A6020
:1024C800FEF78CFB6368012B074641F2883876D00B
:1024D800022B06D17EE0FEF781FBC01B404500F2CF
:1024E80091806B6813F00C0FF5D1474A136803F01D
:1024F8000703B3420CD9136823F00703334313606F
:10250800136803F00703B34202D00120BDE8F0814D
:1025180023685D0706D53D49E0684A6822F4E06211
:1025280002434A60180707D5384A2169536823F4DB
:10253800605343EAC103536034494C6804F00C0308
:10254800082B35D14FF4701393FAA3F304F47012E7
:10255800B3FA83F322FA03F32D48CA6AC35C0F2146
:1025680091FAA1F1B1FA81F102F00F02CA40E10338
:102578004CBF284928490244127C48BFB1FBF2F1FC
:1025880001FB03F1214BF0225B6892FAA2F2B2FA46
:1025980082F203F0F003D3402048214AC35C0020B4
:1025A80021FA03F31360FEF7D9FA0020BDE8F081A1
:1025B8001849E7E7FEF712FBC01B404522D86B68B5
:1025C80003F00C03042BF5D18FE7FEF707FBC01BC4
:1025D800404517D86B6803F00C03082BF5D184E746
:1025E8004FF4003393FAA3F10849096893FAA3F367
:1025F800B3FA83F303F01F0302FA03F30B427FF4E9
:1026080059AF82E7032081E7002002400010024012
:102618001C52000800127A0000093D003C520008D4
:1026280020020020014B1868704700BF20020020DC
:1026380070B5044682B00D461646681C236814D14E
:102648009A6812F4C05FFBD19A68110606D5FBE7B9
:102658001A7BD2B28DF807209DF807209A6812F4E9
:10266800C06FF5D1002002B070BD9A6812F4C05F47
:102678002FD02DB1FEF7B2FA801B8542DDD8236832
:102688005A68616822F0E002B1F5827F5A6037D05B
:10269800A26AB2F5005F07D11A6822F400521A60E4
:1026A8001A6842F400521A60012384F85D30236EE0
:1026B800002243F020030320236684F85C2002B044
:1026C80070BD002DDCD0FEF789FA801B8542236897
:1026D800D6D99A6812060ED5F3E71A7BD2B28DF8CE
:1026E80007209DF80720002DCAD0FEF777FA801B37
:1026F80085422368C4D99A6812F4C06FEDD1B1E756
:10270800A268B2F5004F02D0B2F5806FC0D11A6846
:1027180022F040021A60BBE7002851D0F0B590F8CB
:102728005D30002283B0044603F0FF018262002B73
:1027380041D00223216884F85D300B68E668226B7B
:1027480023F04003B6F5E06F0B602DD9B6F5706F36
:1027580038D1A06A002A3AD04FF0000CA26863680A
:1027680027691343626A019262693B431343D4E9C0
:102778000675019A3243266A2B43656B334307F487
:1027880000763F0C07F004071543334300223D430E
:10279800034345EA0C05012610460B604D6022668E
:1027A80084F85D6003B0F0BD14D00020A062AAB127
:1027B8004FF4805CD2E780F85C1002F03FFCB8E789
:1027C800012070470020A062002AC5D110460223CC
:1027D8002363C1E7A06A002AEAD102460123104612
:1027E80023634FF4805CB9E72DE9F0410D4690F87A
:1027F8005C10012982B05DD0012180F85C1004468C
:1028080016461F46FEF7EAF9804694F85D00C0B206
:10281800012809D002200122002384F85D2084F8D1
:102828005C3002B0BDE8F081002DF4D0002EF2D06B
:10283800A168A563032384F85D30B1F5004F4FF01C
:1028480000032366A687E6872364A4F84430C4E916
:102858001333A4F84630226803D1136843F4804345
:10286800136013685E0603D4136843F040031360D3
:10287800E3686168B3F5E06F20D9002900F0C780EC
:10288800E38F9BB2012B00F0C280791C63D0002F2C
:102898007BD0E38F9BB2002B47D023689A689207BE
:1028A80000F19A80FEF79AF9A0EB08008742F0D869
:1028B8000320B0E7022002B0BDE8F081002900F053
:1028C800AE80E38F9BB2012B00F0A980781C17D053
:1028D800002F69D0E38F9BB23BB323689A689107B6
:1028E80000F18280FEF77AF9A0EB08008742F1D860
:1028F800DEE72A781A73E38F013B9BB20135E38741
:10290800E38F9BB28BB123689A689207F8D5E28F60
:10291800012AEED935F8022BDA60E38F023B9BB22D
:10292800E387E38F9BB2002BEDD142463946204620
:10293800FFF77EFE08B120232366A36833B9226817
:102948000193D368019393680193019B206E003033
:1029580018BF01205FE7E38F9BB2002BE5D0936897
:102968009B07F8D535F8023BD360E38F013B9BB258
:10297800E387E38F9BB2002BF1D1D6E735F8023B12
:10298800D360E38F013B9BB2E387E38F9BB2002BBD
:10299800CBD0936898078BD5F0E72A781A73E38F22
:1029A800013B9BB20135E387E38F9BB2002BBCD080
:1029B80023689A6896077FF57BAFE28F012AECD9E6
:1029C80035F8022BDA60E38F023B9BB2E387E38F93
:1029D8009BB2002BECD1A8E735F8022BDA60E38F25
:1029E800013B9BB2E38754E7E28F012A07D935F808
:1029F800022BDA60E38F023B9BB2E3876AE72A780F
:102A08001A73E38F013B9BB20135E38762E735F820
:102A1800023BD360E38F013B9BB2E38735E7E38F4B
:102A2800012B07D935F8023BD360E38F023B9BB2F9
:102A3800E3874BE72B781373E38F013B9BB2013598
:102A4800E38743E72DE9F04304464068B0F5827F09
:102A58000D4683B094F85C1017461E4618D001291D
:102A680000F0B180012384F85C30FEF7B7F88046A7
:102A780094F85D00C0B2012800F0A980022001226C
:102A8800002384F85D2084F85C3003B0BDE8F0834F
:102A9800A368002BE3D10423012984F85D3000F0FA
:102AA8009280012384F85C30FEF798F894F85D3042
:102AB8006268DBB2012B804607D0B2F5827FDDD198
:102AC800A1680029DAD1042BD8D1002D00F0AA8101
:102AD800002F00F0A78194F85D302564042B1CBFFB
:102AE800052384F85D30E368A4F844700021B3F549
:102AF800E06F2166A563A4F84670A787C4E913119F
:102B0800E787206800F23B81B4F84630012B436820
:102B180040F2808223F48053436003685B0640F1EF
:102B28008082002A00F01282E38F9BB2012B00F012
:102B38000D822F464FF00109E38F9BB22BB9B4F8F1
:102B480046309BB2002B00F03B81B9F1000F13D047
:102B5800E38F9BB283B123689A6891070CD5E28F03
:102B6800012A40F2158237F8022BDA60E38F023B24
:102B78009BB2E3874FF00009B4F846309BB2C3B16B
:102B880023689A68D20714D5B4F84620012A40F27F
:102B98006E81DA6825F8022BB4F84620023A92B220
:102BA800A4F84620B4F84620012A40F2C0814FF02C
:102BB8000109731CC0D0FEF711F8A0EB080086428B
:102BC800BAD803205BE7022003B0BDE8F083002DEC
:102BD8003FF455AF002F3FF452AF042384F85D3023
:102BE8002068E168256400232366A4F84670E3871B
:102BF800A363A387C4E913334368A4F84470B1F509
:102C0800E06F8CBF23F4805343F480534360A36880
:102C1800B3F5004F024600F0848003685F0603D4D2
:102C2800036843F040030360B1F5E06F2ED8731CCE
:102C38005ED0002E00F08580B4F846309BB283B198
:102C48008368DF0700F1C780FDF7C8FFA0EB080025
:102C58008642B6D9B4F8463020689BB20246002BAB
:102C6800EED16368B3F5827F00F0DE80711C40F01E
:102C7800C88083681B06FCD46368B3F5827F00F0C4
:102C8800E080206E003018BF0120F8E6731C18D0D1
:102C9800002E69D0B4F846309BB2002BE1D083688F
:102CA800DF0700F1A480FDF799FFA0EB080086423A
:102CB80087D9B4F8463020689BB20246002BEED183
:102CC800CFE7B4F846309BB2002BCAD08368D90747
:102CD800F7D5C36825F8023BB4F84630013B9BB2F0
:102CE800A4F84630B4F846309BB2002BEED1B8E7D2
:102CF800B4F846309BB2002BB3D08368D907F7D518
:102D0800037B05F8013BB4F846302068013B9BB2D1
:102D1800A4F84630B4F846309BB20246002BECD1FA
:102D28009FE7036823F48043036076E7037B05F895
:102D3800013BB4F846302068013B9BB2A4F846300A
:102D48000246B4F846309BB2002B8AD08368DB0772
:102D58007FF537AFEAE7C36825F8023BB4F8463099
:102D6800013B9BB2A4F84630B4F846309BB2002B26
:102D78003FF477AF8368DF077FF523AFEBE743685E
:102D880023F4805343600368590603D4036843F06F
:102D9800400303602F46002A00F0D080E38F9BB2E7
:102DA800012B00F0CB80731C40F0FC800122E38FE4
:102DB8009BB2002B67D1B4F846309BB2002B62D18E
:102DC800424631462046FFF733FC00283FF459AF0E
:102DD8002023236655E7037B05F8013BB4F846300A
:102DE8002068013B9BB2A4F84630024624E7C3683A
:102DF80025F8023BB4F84630013B9BB2A4F84630B4
:102E080048E783681F067FF537AF002E00F0AB80D8
:102E1800FDF7E4FEA0EB0800864240F2A38020689C
:102E2800024623E701202AE6A368B3F5004F03D042
:102E3800B3F5806F7FF41AAF036823F04003036093
:102E480014E7A368B3F5004F03D0B3F5806F7FF4A0
:102E580018AF751C06D03AE0037BDBB28DF807305B
:102E68009DF80730836813F4C06FF5D109E71B7B21
:102E78002B70B4F84630013B9BB20135A4F84630BC
:102E88004FF0010995E66AB1E38F9BB253B18368AD
:102E9800990707D537F8023BC360E38F013B9BB224
:102EA800E3870022B4F846309BB2002B3FF47FAF93
:102EB8008368DB077FF57BAFC36825F8023BB4F86E
:102EC8004630013B9BB2A4F8463001226FE7836885
:102ED80013F4C06F3FF4D5AE037BDBB28DF8073037
:102EE8009DF8073036B1FDF779FEA0EB0800864261
:102EF8002068AED84368626823F0E003B2F5827FA9
:102F0800436000F0A780A36AB3F5005F07D10368A8
:102F180023F400530360036843F400530360012360
:102F280084F85D30236E43F02003236650E75A6827
:102F380042F480525A604FF001093AE637F8023BF2
:102F4800C360E38F013B9BB2E3872CE7E38F012B40
:102F58006CD92F4637F8023BC360E38F023B9BB224
:102F6800E387E7E522685368616823F0E003B1F579
:102F7800827F536062D0A36AB3F5005FCFD1136834
:102F880023F400531360136843F400531360C6E737
:102F98003A781A73E38F013B9BB20137E3874FF00E
:102FA8000009E9E54FF00109E38F9BB22BB9B4F8AA
:102FB80046309BB2002B3FF403AFB9F1000F0FD09E
:102FC800E38F9BB263B123689A68910708D537F8F5
:102FD800022BDA60E38F013B9BB2E3874FF00009D5
:102FE800B4F846309BB273B123689A68D2070AD501
:102FF800DB6825F8023BB4F84630013B9BB2A4F8E5
:1030080046304FF00109FDF7E9FDA0EB08008642C4
:10301800CAD8D6E543F48053436003685F063FF59A
:1030280080AD036843F0400303607AE52B780373AF
:10303800E38F013B9BB2E3876F1C7BE5A368B3F585
:10304800004F02D0B3F5806F95D1136823F0400389
:10305800136090E7A368B3F5004F03D0B3F5806F12
:103068007FF451AF036823F0400303604BE700BFD0
:1030780000284DD0F8B590F83D30044603F0FF0223
:1030880023B322682C48A769E5686168022384F89D
:103098003D30824213683DD0B2F1804F1BD0A0F57D
:1030A8009430824217D000F59E30824241D000F51C
:1030B800806082423DD000F58060824239D023F0A2
:1030C80080033B431360D56291621BE080F83C208B
:1030D80001F0DAFFD5E7A668206923F070033343CF
:1030E80023F44073034323F080033B431360134BE3
:1030F800D5629A42916203D003F580639A4201D166
:103108006369136301235361002084F83D30F8BDDF
:1031180001207047A668206923F07003334323F425
:103128004073034323F080033B431360D5629162ED
:10313800E6E72069F3E700BF002C014000440140A6
:1031480090F83C30012B1BD0026870B40E4D5368C8
:103158009468AA420FD00E688D6823F0700324F09B
:1031680080013343002429435360916080F83C4038
:10317800204670BC70474D6823F470032B43EAE780
:1031880002231846704700BF002C014070B588B074
:103198005D681C68019101AE002306630221059257
:1031A800CDE90645CDE90333FEF74EFA08B070BD08
:1031B800013830B4042811D8DFE800F0032D3B12A1
:1031C8002000D970150A0824022001215A71002212
:1031D8001D711C70587099709A71DA7130BC704703
:1031E8000021150A082404209D701C70DA7058709C
:1031F800197159719971D97130BC7047002208242E
:1032080002201C70D97058709A701A715A719A718C
:10321800DA7130BC7047150A08240220D9700021E1
:103228001D711C705A71587098709971D97130BCA1
:103238007047D970150A082403200221C6E700BF89
:103248002DE9F04FC48883B00A2CCDE900324FF045
:10325800000329D89E469C461F460E46814646F2E4
:10326800A71A4AF20A5B0EE0554523D95D452BD8CB
:1032780041F65732944209F104092FD801336C2BD7
:1032880006F1040633D031F82320B6F8028030F86E
:103298002350964502F1FF3438BF9646B8F10A0F1D
:1032A800A4B21744AC44DFD90E9A0520137003B0BA
:1032B800BDE8F08F0E9A1370B9F800300F9A01200C
:1032C800138003B0BDE8F08F0E9A1370B9F8003080
:1032D8000F9A0220138003B0BDE8F08F0E9A137086
:1032E80033880F9A0320138003B0BDE8F08F0E4A8D
:1032F8000099BB08A2FB0323C3F3CF0341F6641272
:1033080093420B8007D80C9BA3F800E0019B002098
:10331800C3F800C0CBE70E9A002313700F9A0B88EE
:1033280013800420C3E700BFF712DA4B0000000047
:103338002DE9F04F2DED028B89B00DF1200A83465F
:1033480000F11004FF200AF8080DCDE90012E4008E
:10335800002208214FF090401D468DF81440FEF7DA
:103368009BFD01231A4651462846FFF73DFA0122E4
:1033780008214FF09040FEF78FFDD54C9DF8143092
:1033880034F8133083F48052C2F3C71383F0040374
:10339800042634F813308DF8156083EA02231BB233
:1033A8005B009BB21F0A002208214FF090408DF865
:1033B80017308DF81670FEF76FFD324605A96423A5
:1033C8002846FFF711FA6423514608222846FFF7DA
:1033D80039FB012208214FF09040FEF75DFD9DF872
:1033E80018009DF8191034F810309DF81A209DF82F
:1033F8001B609DF81C909DF81D809DF81EE09DF8AF
:103408001F7083F4805381EAD31C5FFA8CFC07EBAE
:103418000E2734F81CC08CEA03239BB282EAD31C23
:103428005FFA8CFCBFB234F81CC08CEA03239BB251
:1034380086EAD31C5FFA8CFC0BEBCB0B34F81CC070
:103448008CEA03239BB289EAD31C5FFA8CFC4FEA0F
:103458008B0B34F81CC08CEA03239BB288EAD31C7C
:103468005FFA8CFC34F81CC08CEA03231BB25B00A7
:103478009BB29F42009B00F02D81002B00F0208121
:10348800019800EB0B020BF108035188034401314A
:1034980051805A8801325A809DF8143034F813301C
:1034A80083F48052C2F3C71383F00603062134F86D
:1034B80013308DF8151083EA02231BB25B009BB210
:1034C8001E0A002208214FF090408DF817308DF821
:1034D8001660FEF7E1FC6423042205A92846FFF7DD
:1034E80083F96423082251462846FFF7ABFA0122E4
:1034F80008214FF09040FEF7CFFC9DF818009DF88A
:10350800197034F810309DF81A109DF81B609DF85A
:103518001CC09DF81D2083F4805387EAD31E5FFAF0
:103528008EFE80B234F81EE08EEA03239BB281EA55
:10353800D31E5FFA8EFE34F81EE08EEA03239BB298
:1035480086EAD31E5FFA8EFE34F81EE08EEA032365
:103558009BB28CEAD31C5FFA8CFE9DF81EC034F82F
:103568001EE08EEA03231FFA83FE82EADE12D3B23C
:103578009DF81F2034F8133083EA0E231BB25B003A
:1035880002EB0C229BB292B29A42009B00F0B681E9
:10359800002B40F0B7820BF10C03019A13445A88B0
:1035A80001325A809DF8143034F8133083F4805275
:1035B800C2F3C71383F00803082634F813308DF8D4
:1035C800156083EA02231BB25B009BB223FA06F75D
:1035D800314600224FF090408DF817308DF8167064
:1035E800FEF75AFC6423042205A92846FFF7FCF8D5
:1035F8003246642351462846FFF724FA3146012211
:103608004FF09040FEF748FC9DF818009DF819C04F
:1036180034F810209DF81A609DF81B709DF81C80E6
:103628009DF81D909DF81EE09DF81F3082F4805291
:103638008CEAD211C9B203EB0E2334F8111081EAD7
:10364800022292B286EAD211C9B29BB234F81110A2
:1036580081EA022292B287EAD211C9B280B234F862
:10366800111081EA022292B288EAD211C9B234F862
:10367800111081EA022189B289EAD112D2B234F852
:10368800122082EA012212B2520092B29342009BA7
:103698007CD0002B40F0A68101990BF114030B4458
:1036A8000BF11C0B5A888B4401325A80BBF802304C
:1036B8000133ABF8023009B0BDEC028BBDE8F08FE6
:1036C800019A0BF1040313445A8801325A80E3E645
:1036D80008000020002B40F0C88202EB062080B2D0
:1036E800FCF7C0FEB4A3D3E90023FCF725FFFDF7E0
:1036F800E5F9FCF7C9FEB2A3D3E9002306460F4655
:10370800FCF71AFF32463B46FCF716FF32463B46AB
:10371800FCF712FFACA3D3E9002380468946304664
:103728003946FCF709FF32463B46FCF705FF0246DF
:103738000B4640464946FCF749FDA5A3D3E90023BB
:103748008046894630463946FCF7F6FE02460B4667
:1037580040464946FCF738FD9FA3D3E90023FCF710
:1037680035FDFDF7ABF9DFED9E7A019907EE100AFA
:1037780067EE277A0BF10403FCEEE77ACA1817EE16
:10378800900AC852BDF80030538085E6002B40F0FF
:10379800148200EB0C2080B2FCF764FE86A3D3E908
:1037A8000023FCF7C9FEFDF789F9FCF76DFE84A339
:1037B800D3E9002304460D46FCF7BEFE22462B46FD
:1037C800FCF7BAFE22462B46FCF7B6FE7EA3D3E9E9
:1037D800002306460F4620462946FCF7ADFE224642
:1037E8002B46FCF7A9FE02460B4630463946FCF745
:1037F800EDFC77A3D3E9002306460F462046294669
:10380800FCF79AFE02460B4630463946FCF7DCFCCC
:1038180071A3D3E90023FCF7D9FCFDF74FF99FED1D
:10382800708A019907EE900A67EE887A0BF1140AFC
:10383800FCEEE77A08EB092017EE904A80B221F8EF
:103848000A40FCF70FFE5CA3D3E90023FCF774FEE3
:10385800FDF734F9FCF718FE59A3D3E90023044611
:103868000D46FCF769FE22462B46FCF765FE22460C
:103878002B46FCF761FE54A3D3E9002306460F4606
:1038880020462946FCF758FE22462B46FCF754FEF4
:1038980002460B4630463946FCF798FC4CA3D3E960
:1038A800002306460F4620462946FCF745FE0246F9
:1038B8000B4630463946FCF787FC47A3D3E900237B
:1038C800FCF784FCFDF7FAF807EE900A27EE888AE1
:1038D800019ABCEEC88A0BF11C0B18EE101A02EB09
:1038E8000A0802EB0B0322F80B10009AA8F8022032
:1038F8005A8009B0BDEC028BBDE8F08F002B40F078
:10390800048100EB072080B2FCF7ACFD2AA3D3E9C1
:103918000023FCF711FEFDF7D1F8FCF7B5FD28A34D
:10392800D3E9002306460F46FCF706FE32463B461F
:10393800FCF702FE32463B46FCF7FEFD22A3D3E924
:1039480000238046894630463946FCF7F5FD324665
:103958003B46FCF7F1FD02460B4640464946FCF75C
:1039680035FC1BA3D3E900238046894630463946F7
:10397800FCF7E2FD02460B4640464946FCF724FCAC
:1039880015A3D3E90023FCF721FCFDF797F8DFED39
:10399800147A019907EE100A67EE277A0BF10C03E7
:1039A800FCEEE77ACA1817EE900AC852BDF8003044
:1039B8005380F7E5AFF300802D431CEBE2361A3F46
:1039C8006666666666366CC066666666667A944043
:1039D8009A9999999945A44033333333339F9B403F
:1039E8000000C842019A0BF1180313445A880132A7
:1039F8005A80009F012F7FF45EAE9DF8143034F892
:103A0800133083F48052C2F3C71383F00A030A21E8
:103A180034F813308DF8151083EA02231BB25B00CB
:103A28009BB21E0A002208214FF090408DF81730F3
:103A38008DF81660FEF730FA05A96423042228469B
:103A4800FEF7D2FE6423514628460822FEF7FAFF05
:103A58003A4608214FF09040FEF71EFA9DF81810DC
:103A68009DF8190034F811309DF81A209DF81BC0F4
:103A78009DF81C609DF81D5083F4805380EAD3178D
:103A8800FFB20BF1200B34F8177087EA03239BB2BF
:103A980082EAD312D2B29DF81E7034F8122082EA5C
:103AA800032293B28CEAD312D2B29DF81FC034F825
:103AB800122082EA032292B286EAD216F6B20CEB00
:103AC800072734F8163083EA02239AB285EAD2151A
:103AD800EDB2BFB234F8153083EA02231BB25B00A3
:103AE8009BB2019A9F4289B202EB0B0800F06B81EE
:103AF800B8F802300133A8F8023009B0BDEC028BE7
:103B0800BDE8F08F0BF1100347E501EB062080B20A
:103B1800FCF7A8FCDAA3D3E90023FCF70DFDFCF7BA
:103B2800CDFFFCF7B1FCD8A3D3E9002306460F4626
:103B3800FCF702FD32463B46FCF7FEFC32463B46AC
:103B4800FCF7FAFCD2A3D3E9002380468946304625
:103B58003946FCF7F1FC32463B46FCF7EDFC0246E1
:103B68000B4640464946FCF731FBCBA3D3E900237B
:103B78008046894630463946FCF7DEFC02460B464D
:103B880040464946FCF720FBC5A3D3E90023FCF7D0
:103B98001DFBFCF793FFDFEDC47A07EE100A67EE12
:103BA800277A0198FCEEE77A0BF11003C21817EE9A
:103BB800906A0021C6525180F4E406EB072080B2D7
:103BC800FCF750FCAEA3D3E90023FCF7B5FCFCF7E7
:103BD80075FFFCF759FCACA3D3E9002306460F4652
:103BE800FCF7AAFC32463B46FCF7A6FC32463B46AD
:103BF800FCF7A2FCA6A3D3E90023804689463046F9
:103C08003946FCF799FC32463B46FCF795FC0246E0
:103C18000B4640464946FCF7D9FA9FA3D3E900234F
:103C28008046894630463946FCF786FC02460B46F4
:103C380040464946FCF7C8FA99A3D3E90023FCF7A4
:103C4800C5FAFCF73BFFDFED987A07EE100A67EE3E
:103C5800277A0198FCEEE77A0BF11803C21817EEE1
:103C6800906A0021C6525180C3E680B200EB012061
:103C780080B2FCF7F7FB82A3D3E90023FCF75CFCD6
:103C8800FCF71CFFFCF700FC7FA3D3E900230646E2
:103C98000F46FCF751FC32463B46FCF74DFC3246DA
:103CA8003B46FCF749FC7AA3D3E90023CDE902019E
:103CB80030463946FCF740FC32463B46FCF73CFCB4
:103CC80002460B46DDE90201FCF780FA72A3D3E94C
:103CD8000023CDE9020130463946FCF72DFC0246A7
:103CE8000B46DDE90201FCF76FFA6DA3D3E9002367
:103CF800FCF76CFAFCF7E2FE9FED6B8A019B07EE7E
:103D0800900A67EE887A09EB0820FCEEE77A80B221
:103D180017EE902A23F80B20FCF7A4FB58A3D3E94D
:103D28000023FCF709FCFCF7C9FEFCF7ADFB56A322
:103D3800D3E9002306460F46FCF7FEFB32463B4616
:103D4800FCF7FAFB32463B46FCF7F6FB50A3D3E9F7
:103D580000238046894630463946FCF7EDFB32465B
:103D68003B46FCF7E9FB02460B4640464946FCF752
:103D78002DFA49A3D3E900238046894630463946BF
:103D8800FCF7DAFB02460B4640464946FCF71CFAAC
:103D980043A3D3E90023FCF719FAFCF78FFE07EEDB
:103DA800900A27EE888A019EBCEEC88A0BF10803A8
:103DB8003246F0185A4418EE107A0021F752518012
:103DC8004180FFF769BB01EB002080B2FCF74AFB9A
:103DD8002BA3D3E90023FCF7AFFBFCF76FFEFCF73E
:103DE80053FB29A3D3E9002304460D46FCF7A4FBA3
:103DF80022462B46FCF7A0FB22462B46FCF79CFBF1
:103E080023A3D3E9002306460F4620462946FCF79C
:103E180093FB22462B46FCF78FFB02460B463046A7
:103E28003946FCF7D3F91CA3D3E9002306460F460D
:103E380020462946FCF780FB02460B4630463946A9
:103E4800FCF7C2F916A3D3E90023FCF7BFF9FCF786
:103E580035FEDFED157A019A07EE100A67EE277A2C
:103E68000023FCEEE77A17EE901A22F80B10A8F858
:103E7800023009B0BDEC028BBDE8F08FAFF30080D3
:103E88002D431CEBE2361A3F6666666666366CC0E2
:103E980066666666667A94409A9999999945A440A7
:103EA80033333333339F9B400000C8422DE9F04F32
:103EB8008BB00DF12809054600F11003FF200E46CE
:103EC80009F8080DDB000092082100224FF090400D
:103ED8008DF81C30FDF7E0FF01231A46494600988B
:103EE800984CFEF781FC012208214FF09040FDF725
:103EF800D3FF9DF81C3034F8133083F48052C2F39A
:103F0800C71383F004034FF0040834F813308DF816
:103F18001D8083EA02231BB25B009BB24FEA132C7D
:103F2800002208214FF090408DF81EC08DF81F30F8
:103F3800FDF7B2FF424607A964230098FEF754FC38
:103F48006423494608220098FEF77CFD01220821D7
:103F58004FF09040FDF7A0FF9DF820109DF821A09C
:103F680034F811309DF822709DF823B09DF8242074
:103F7800029283F480538AEAD31C5FFA8CFC9DF882
:103F8800252034F81CC001928CEA03239BB287EAEF
:103F9800D31C5FFA8CFC9DF8260034F81CC09DF8F1
:103FA800272003978CEA03239BB28BEAD31C5FFA82
:103FB8008CFC02EB002234F81C0080EA03230298F0
:103FC8009BB280EAD310C0B205EBC50534F81000E7
:103FD80080EA0320019B80B283EAD013DBB2AD00F4
:103FE80034F8133083EA00231BB25B009BB292B211
:103FF80005EB08079A4205F10808049706EB070C39
:1040080006EB080006EB050E00F0BA81BEF8023098
:104018000133AEF80230BCF802300133ACF802309C
:104028004388013343809DF81C3034F8133083F4FF
:104038008052C2F3C71383F00603062134F8133005
:104048008DF81D1083EA02231BB25B009BB24FEA76
:10405800132C002208214FF090408DF81EC08DF8D7
:104068001F30FDF719FF6423042207A90098FEF703
:10407800BBFB6423082249460098FEF7E3FC0122B3
:1040880008214FF09040FDF707FF9DF821309DF87B
:1040980020A001931F4634F81A309DF822009DF89D
:1040A80023809DF824B09DF825109DF826E09DF802
:1040B800272083F4805387EAD31C5FFA8CFC02EB39
:1040C8000E2234F81CC08CEA03239BB280EAD31C6E
:1040D8005FFA8CFC92B234F81CC08CEA03239BB2C2
:1040E80088EAD31C5FFA8CFC05F10C0E34F81CC06E
:1040F8008CEA03239BB28BEAD31B5FFA8BFB05F197
:10410800100C34F81BB08BEA03239BB281EAD3115D
:10411800C9B21FFA8AFA34F8111081EA03231BB2D4
:104128005B009BB29A4206EB0E0B06EB0C0100F00B
:104138005381BBF802300133ABF802304B880133AE
:104148004B8001E0080000209DF81C3034F8133043
:1041580083F48052C2F3C71383F008034FF00808B2
:1041680034F813308DF81D8083EA02231BB25B00FC
:104178009BB223FA08FC414600224FF090408DF88C
:104188001EC08DF81F30FDF787FE6423042207A99F
:104198000098FEF729FB4246642349460098FEF73B
:1041A80051FC414601224FF09040FDF775FE9DF805
:1041B80020E09DF821A034F81E309DF822709DF86B
:1041C80023B09DF82420039283F480538AEAD31005
:1041D800C0B2114634F810009DF82520019280EAFB
:1041E80003239BB287EAD310C0B29DF826C034F8E7
:1041F80010009DF82720049780EA03239BB28BEADE
:10420800D310C0B202EB0C2234F8100080EA03236A
:104218009BB281EAD310C0B205F1180134F810003E
:10422800029180EA0320019B80B283EAD013DBB2BB
:1042380092B234F8133083EA00231BB25B00029871
:104248009BB205F1140705F11C089A421FFA8EF17A
:1042580006EB000C059706EB070E06EB080000F0CE
:10426800A580BEF802300133AEF80230BCF8023047
:104278000133ACF802304388013343809DF81C3089
:1042880034F8133083F48052C2F3C71383F00A035F
:104298000A2134F813308DF81D1083EA02231BB26B
:1042A8005B009BB24FEA132C002208214FF090408C
:1042B8008DF81EC08DF81F30FDF7EEFD07A96423A9
:1042C80004220098FEF790FA6423494608220098D1
:1042D800FEF7B8FB012208214FF09040FDF7DCFD06
:1042E8009DF820109DF8210034F811309DF8222007
:1042F8009DF823C09DF824E09DF8278083F480571B
:1043080080EAD713DBB2203534F8133083EA072369
:104318009BB282EAD312D2B29DF8257034F81220EB
:1043280082EA032293B28CEAD31C5FFA8CF29DF8DE
:1043380026C034F8122082EA032292B28EEAD21EF4
:104348005FFA8EFE08EB0C2C34F81E3083EA022349
:104358009AB287EAD217FFB21FFA8CFC34F81730EA
:1043680083EA02231BB25B009BB29C4589B206EB31
:1043780005023ED05388013353800BB0BDE8F08F5F
:10438800039B03EB0B2BDDE9012389B203EB02232B
:1043980001EB0A210022715326F807B026F80830ED
:1043A800AEF80220ACF8022042803CE6049B019A59
:1043B80001EB0A2103EB0B2B039BF153029903EB4F
:1043C8000223002226F801B026F80830AEF80220B1
:1043D800ACF80220428051E700230AEB072A00EBE1
:1043E800082026F80EA026F80C00ABF802304B8007
:1043F800AAE601EB00210023715353800BB0BDE8FE
:10440800F08F00BFF0B54A4E358885F48055EF0926
:1044180087F00103DBB22D0236F813302DB26B4062
:1044280085B05B009BB24FEA132C14468DF8073019
:104438004FF48072002301288DF806C0ADF80420DF
:1044480002936AD0ADF80C309DF809309DF80A1037
:104458009DF80BC09DF80C009DF80D205F40FFB241
:1044680036F817306B409BB281EAD311C9B204AD5C
:1044780036F8111081EA03239BB28CEAD311C9B232
:10448800FF2736F8111081EA032189B280EAD1109A
:10449800C0B236F8103005F80D7D83EA012399B2D1
:1044A80082EAD112D3B24FF0904036F8133083EA43
:1044B80001231BB25B009BB21E0A002208218DF863
:1044C8000F308DF80E60FDF7E7FC01231A462946E8
:1044D8002046FEF789F9012208214FF09040FDF7A8
:1044E800DBFC002208214FF09040FDF7D5FC0422A8
:1044F8000DEB02010A232046FEF776F908220DEBA0
:1045080002010A232046FEF76FF9012208214FF025
:104518009040FDF7C1FC05B0F0BD21B94FF4A5737B
:10452800ADF80C3090E740F29523ADF80C308BE7EE
:104538000800002070B5244D0630EB880001C0B299
:1045480083F4805280EAD213DBB282B035F813309C
:104558008DF8050083EA02231BB25B009BB202AD13
:10456800180AFF220C4605F8052D8DF806000326CB
:10457800002208214FF090408DF807308DF8046034
:10458800FDF78AFC01231A4629462046FEF72CF936
:10459800012208214FF09040FDF77EFC00220821FF
:1045A8004FF09040FDF778FC04220DEB02016423E4
:1045B8002046FEF719F9012208214FF09040FDF737
:1045C8006BFC02B070BD00BF0800002030B591B090
:1045D80002240125102100224FF4601306A8069436
:1045E8000D94CDE90A51CDE90E23FDF75BFC00B12E
:1045F800FEE7034621464FF480620F2501A8CDE966
:104608000243059301950492FDF71AFF044600B191
:10461800FEE7FEF707F84FF47A73B0FBF3F0FDF707
:1046280077FA0420FDF78EFA224621464FF0FF3034
:10463800FDF72CFA11B030BD2DE9F04F634F644CF3
:1046480093B0FCF7ADFAFFF7C1FF7B6943F4003381
:104658007B617B6903F400330793079B7B6943F411
:1046680080237B617B6903F480230893002240F256
:1046780002614FF09040089BFDF70EFC01220821D3
:104688004FF090400025FDF707FC012640F20A6331
:104698000CA94FF090400C93CDE90D650F95FDF7EF
:1046A80029FB40230CA94FF090400C93CDE90D56FF
:1046B800FDF720FB7B6933437B617B6933402A46E6
:1046C800294606930B20069BFDF7E0F90B20FDF722
:1046D80013FA404921604FF482724FF4E0634FF0BF
:1046E80007084FF400716260E3602822082320461F
:1046F800A560C4E90455C4E90855A5622563A1610C
:10470800E2616363C4F82C80FEF706F800B1FEE7A7
:10471800314D03464FF0A0414FF44032284604275C
:10472800AB602B616B62C5E90B63EB60AB61AB639C
:10473800EE612E626E63C5E900126F61FCF79EFAA6
:10474800034600B1FEE712A9284641F8243DFCF7CC
:10475800FDFD034600B1FEE728460CA9CDE90C662D
:10476800CDE90E83CDE91033FCF768FC00B1FEE714
:104778001A491B4AC8624FF4A023C1E90200C1E9E3
:104788000500C1E90700C1E9090008464F600A6051
:104798000B61FCF7BDFE00B1FEE7124D124AA8609E
:1047A8004FF4FA43E860A8612846C5E90023FEF7FC
:1047B8005FFC034600B1FEE728460CA90C930E9354
:1047C800FEF7BEFC054688B1FEE700BF00100240B8
:1047D800BC100020003001406C040020780200204A
:1047E80000640040F00D002000100040D24B4FF450
:1047F800A852C3E907065861194618611A60CF48DC
:104808009E614FF42A62C3E90122DA60FCF712FEC6
:10481800CB4B43F220012A46C3E90011C3E9021138
:104828004FF090404FF48061C3E90556C3E907563D
:104838001D61FDF731FBC34B214628461E70FFF76B
:1048480079FE0A20FCF7D0F9BF4EE8B2224631467D
:104858000135FFF72BFB0C2DF7D1BC4ABC4D164692
:1048680000210120FFF7CEFD31460120FFF762FE4F
:104878000A20FCF7B9F90024E0B233462A460021A1
:104888000134FEF755FD0C2CF6D1B04AB04D01218C
:1048980016460846FFF7B6FD31460120FFF74AFEE7
:1048A8000A20FCF7A1F900240121E0B233460C44A8
:1048B8002A46FEF73DFD0C2CF6D1DFF88CB2A34A50
:1048C800A34EA44CDFF8BCA2002108461746FFF708
:1048D80099FDBBF864C1BBF86001B6F864E1B6F8AD
:1048E8007451BBF87081BBF87411B6F86021B6F842
:1048F80070316044724441442B44401000254FEA13
:10490800610E4FEA620C5B10ABF868014FF400725D
:10491800A4F2FC719048ABF86CE1A6F868C1A6F85F
:104928006C31ABF86A51ABF86E51A6F86A51A6F82B
:104938006E51FCF7DFFADFF810928048FDF790F827
:10494800042800F0E38139460020FFF7F3FD0A2030
:10495800FCF74AF90025E8B23A4649460135FFF71F
:10496800A5FA0C2DF7D17D4B19780131C9B202296E
:1049780000F0518119703A460120FFF743FD39468E
:104988000120FFF7D7FD0A20FCF72EF9DFF8C081D8
:1049980000257249E8B23B46424609780135FEF7E0
:1049A800C7FC0C2DF5D1002108463A46FFF72AFD31
:1049B800674EBBF86451BBF86031BBF87421BBF893
:1049C8007001B6F864112B44B6F8605110442944BC
:1049D800B6F87021B6F874515B102A444FF0000CF9
:1049E800521040104910ABF868315D4BA6F86C21A5
:1049F800ABF86AC1ABF86EC1A6F86AC1A6F86EC179
:104A0800ABF86C01A6F86811002253F8041F9C4209
:104A18000A44FAD1002AB8BF02F2FF125212C2F5B4
:104A280022600330FBF71EFD41A3D3E90023FBF707
:104A380083FDFCF71BF84B4B45491A684A4B186035
:104A48008318002AB8BF0F32A3EB2213454A13601C
:104A5800002BB8BF0F331D11444B0393444B454AF9
:104A6800CDE901034448454B00930560444B484653
:104A7800FEF7E6FB394A5070002840F0AA80D37848
:104A880090706BB90A20354DFCF7AEF84FF0010372
:104A980001224FF480614FF09040EB70FDF7FCF974
:104AA800344B374A35491B68128808888AF803301E
:104AB8004FF001011D0C8AF80010110A4FEA132C5F
:104AC8008AF801502F4B8AF80520050A08228AF82F
:104AD80004108AF80700AA2118488AF802C08AF840
:104AE8000650FEF753FB244B1A688AF8032011146A
:104AF80010124FF00006234B8AF801108AF80200C2
:104B080005250822AA210D488AF804608AF805605C
:104B18008AF806608AF807608AF80050FEF736FBC4
:104B2800084B1B78002B7CD004482DE0AFF30080A5
:104B380052B81E85EBD12940481100207802002088
:104B48004C02002072110020080F0020BC10002029
:104B5800BC020020BC0C00206C0400204002002095
:104B6800BC040020E40D00207402002090110020F5
:104B7800B8100020441100209C0D0020BA1000201D
:104B880070110020E80D0020BD4D45630122002171
:104B9800FCF752FE00287FF4D0AEB94B1B68552BAA
:104BA800054600F0C580A82B00F0E080B54A002338
:104BB8003BF8231022F8021F01336C2BF8D1B24ABC
:104BC80000233BF8231022F8021F01336C2BF8D185
:104BD800B1E6AE4A93780133DBB20F2B93707FF6C0
:104BE8005FAFAA4D4FF0000300224FF480614FF0F1
:104BF8009040EB70FDF750F9A54AA6496878A64B96
:104C080012880978FEF7D4FAA34BA4480822AA21EF
:104C1800FEF7BCFA44E79D4A4FF0000313700021E9
:104C2800A9E69F4B9D48032240F20121FEF7AEFA08
:104C380002259A48924E466301220021FCF7FCFDAA
:104C480040F2811310B932689A4267D0012D5BD1C6
:104C5800944E336842F2107000FB03F0FBF702FC3D
:104C680083A3D3E90023FBF791FDFBF7FFFE306038
:104C7800FBF7F8FB8C4BCDE904011868FBF7E2FB66
:104C88007DA3D3E90023FBF757FC02460B46DDE979
:104C98000401FBF7E1FEF0B14FF47A70FBF7A4FFD3
:104CA8002A4602214FF09040FDF7F6F82846FBF718
:104CB8009BFF002202214FF09040FDF7EDF87B4B5F
:104CC8007B4976481D70FCF7B5FB7A4B7348082280
:104CD800AA21FEF75BFA6D4A938801339BB2B3F5BC
:104CE800E17F93807FF620AF00224FF400714FF0F0
:104CF8009040FDF7D1F86D4B6D4968484FF00102BF
:104D08001A70FCF797FB0FE7012592E700224FF492
:104D180080614FF09040FDF7BFF814E6337DEB2B30
:104D280094D1B27D737D03EB02235E4A13608DE755
:104D3800534B9B8A0A2B00F08780B3F5857F62D09E
:104D48004F4B1B7D0B2B7FF431AF02464FF40071A4
:104D58004FF09040FDF7A0F85449574B4F480122B7
:104D68000A700822AA21FEF711FA1FE7DFF8589106
:104D7800DFF85881B8F80860B9F800E004964F4E9B
:104D8800B8F800C0B9F80430B8F80420B9F8081029
:104D98008AF80050A6FB0E0E4948A0FB0C0CA6FB97
:104DA80003034748A6FB0161A0FB0202049E444896
:104DB800A0FB06604FEA5C1CDB095209C9094009DF
:104DC8004FEADE1E8AF802C08AF803304FF0000C62
:104DD800314B8AF804208AF805100822AB218AF89A
:104DE80006002E488AF801E08AF807C00335FEF766
:104DF800CDF90A20FBF7F8FE6C2D09F10C0908F132
:104E08000C08B7D1D2E601224FF400714FF0904060
:104E1800FDF742F843F69820FBF7E6FE012202214F
:104E28004FF09040FDF738F80120FBF7DDFE2A46E9
:104E380002214FF09040FDF72FF81E4B174808222B
:104E4800AA21FEF7A3F9B1E601224FF400714FF051
:104E58009040FDF721F8154B1A491D700B4B0F4870
:104E68009D80104B1D60FCF7E5FA9FE6AFF30080CC
:104E780039B4C876BE7F3F40CDCCCCCCCCCCEC3F4F
:104E8800201100202E0E0020BE0C00204002002021
:104E980090110020B8100020E80D002078020020B2
:104EA80008020020980D00204411002072110020F3
:104EB8004811002010020020180200201F85EB5125
:104EC800CDCCCCCC4C020020080F0020BC02002026
:104ED800FEE700BF224B00B59A6942F001029A61D1
:104EE8009A6983B002F001020092009ADA6942F0EE
:104EF8008052DA61DB6903F0805301930320019B40
:104F0800FCF7B2FD002211466FF00B00FCF7BEFD66
:104F1800002211466FF00A00FCF7B8FD0022114686
:104F28006FF00900FCF7B2FD002211466FF0040093
:104F3800FCF7ACFD002211466FF00300FCF7A6FD5C
:104F4800002211466FF00100FCF7A0FD0022114677
:104F58004FF0FF3003B05DF804EBFCF797BD00BFDE
:104F6800001002400368B3F1A04F00D0704703F16E
:104F7800704303F5043370B55A691A4C42F08052F5
:104F88005A615B6986B003F08053009301220323C2
:104F9800002601A90546009801924FF09040CDE9FE
:104FA8000236FCF7A7FE104A226080234FF40070F7
:104FB8004FF400612022E36020614FF40053204643
:104FC8006660A660C4E90512E361FCF7CDFD18B977
:104FD800EC63656206B070BD72210448FFF778FF84
:104FE800F6E700BFA00D0020080002405452000858
:104FF8000268114B9A4200D0704703F5D63370B55A
:10500800DA6942F00072DA61DB6986B003F0007396
:105018004FF4C05000930322092301900225012474
:1050280001A94FF09040009ECDE90254CDE9042338
:10503800FCF760FE06B070BD006400400268104BCB
:105048009A4200D0704703F5604370B59A690D48DD
:1050580042F480529A619B6986B003F480533821E8
:1050680000930322052301910225002401A9009E33
:10507800CDE90254CDE90423FCF73CFE06B070BD2F
:1050880000300140000400480268094B9A4200D0F1
:10509800704703F5003382B0DA6942F01002DA6132
:1050A800DB6903F010030193019B02B0704700BF56
:1050B80000100040704700BFFEE700BFFEE700BFDA
:1050C800FEE700BFFEE700BF704700BF704700BFA4
:1050D800704700BF08B5FBF775FDBDE80840FCF751
:1050E8003FBD00BF0148FCF7B7BD00BFA00D0020C1
:1050F8001749184B184A194810B4D1F8884044F495
:105108007004C1F888401C6844F001041C605C68A5
:1051180022405A601A6822F0847222F480321A609F
:105128001A6822F480221A605A6822F4FE025A6031
:10513800DA6A22F00F02DA621A6B002410404FF08C
:10514800006218639C608A605DF8044B704700BF7A
:1051580000ED00E0001002400CC07FF8CCFC00FF1E
:10516800DFF834D0002103E00C4B5B584350043186
:105178000B480C4B42189A42F6D30B4A02E0002324
:1051880042F8043B094B9A42F9D3FFF7B1FF00F00C
:1051980011F8FFF751FAFEE70030002078520008B6
:1051A8000000002024020020240200209411002086
:1051B800FEE7000070B50D4E0D4CA41BA410002591
:1051C800A54209D10B4E0C4C00F018F8A41BA410F2
:1051D8000025A54205D170BD56F825309847013500
:1051E800EEE756F8253098470135F2E77052000887
:1051F800705200087052000874520008F8B500BFD9
:10520800F8BC08BC9E467047F8B500BFF8BC08BC9F
:045218009E467047F7
:10521C0002030405060708090A0B0C0D0E0F1010EB
:10522C000102030405060708090A0B0C0D0E0F10EA
:10523C00000000000000000001020304060708093A
:10524C0000000000010203042E2E2F5372632F73F3
:10525C00746D3332663378785F68616C5F6D737030
:04526C002E630000AD
:04527000AD01000884
:0452740089010008A4
:105278000100000010000000000099C5ABCE320B01
:10528800CFD8561D6416FDD307F49E31AC3A35FFCE
:10529800C82C51E963E2FA2797AD0E683C63A5A6CE
:1052A8005875C1B0F3BB6A7E9059099C3B97A252CE
:1052B8005F81C644F44F6D8A2E5BB79E85951C505E
:1052C800E18378464A4DD38829AFB06A82611BA42E
:1052D800E6777FB24DB9D47CB9F6203312388BFD0E
:1052E800762EEFEBDDE04425BE0227C715CC8C09EE
:1052F80071DAE81FDA1443D1C5F35C366E3DF7F86E
:105308000A2B93EEA1E53820C2075BC269C9F00CED
:105318000DDF941AA6113FD4525ECB9BF9906055CD
:105328009D8604433648AF8D55AACC6FFE6467A1AD
:105338009A7203B731BCA879EBA8726D4066D9A3FD
:105348002470BDB58FBE167BEC5C75994792DE570D
:105358002384BA41884A118F7C05E5C0D7CB4E0E0D
:10536800B3DD2A18181381D67BF1E234D03F49FA0D
:10537800B4292DEC1FE7862213A28A67B86C21A9ED
:10538800DC7A45BF77B4EE7114568D93BF98265DCD
:10539800DB8E424B7040E985840F1DCA2FC1B604CD
:1053A8004BD7D212E01979DC83FB1A3E2835B1F0CD
:1053B8004C23D5E6E7ED7E283DF9A43C96370FF25D
:1053C800F2216BE459EFC02A3A0DA3C891C308062D
:1053D800F5D56C105E1BC7DEAA543391019A985F0D
:1053E800658CFC49CE425787ADA03465066E9FABED
:1053F8006278FBBDC9B65073D6514F947D9FE45A6D
:105408001989804CB2472B82D1A548607A6BE3AEEC
:105418001E7D87B8B5B32C7641FCD839EA3273F7CC
:105428008E2417E125EABC2F4608DFCDEDC67403AC
:1054380089D01015221EBBDBF80A61CF53C4CA01FC
:1054480037D2AE179C1C05D9FFFE663B5430CDF50C
:105458003026A9E39BE8022D6FA7F662C4695DAC0C
:10546800A07F39BA0BB192746853F196C39D5A580C
:10547800A78B3E4E0C4595803DEB000000000000D8
:10548800030000000000000004000000000000000D
:0454980000127A0084
:040000050800516935
:00000001FF
